{
  "contractName": "Transaction",
  "abi": [
    {
      "anonymous": false,
      "inputs": [
        {
          "indexed": false,
          "internalType": "address",
          "name": "from",
          "type": "address"
        },
        {
          "indexed": false,
          "internalType": "address",
          "name": "receiver",
          "type": "address"
        },
        {
          "indexed": false,
          "internalType": "string",
          "name": "user_id",
          "type": "string"
        },
        {
          "indexed": false,
          "internalType": "string",
          "name": "election_id",
          "type": "string"
        },
        {
          "indexed": false,
          "internalType": "string",
          "name": "candidate_id",
          "type": "string"
        },
        {
          "indexed": false,
          "internalType": "uint256",
          "name": "timestamp",
          "type": "uint256"
        }
      ],
      "name": "Transfer",
      "type": "event"
    },
    {
      "inputs": [],
      "name": "transactionCounter",
      "outputs": [
        {
          "internalType": "uint256",
          "name": "",
          "type": "uint256"
        }
      ],
      "stateMutability": "view",
      "type": "function",
      "constant": true
    },
    {
      "inputs": [
        {
          "internalType": "uint256",
          "name": "",
          "type": "uint256"
        }
      ],
      "name": "transactions",
      "outputs": [
        {
          "internalType": "address",
          "name": "from",
          "type": "address"
        },
        {
          "internalType": "address",
          "name": "receiver",
          "type": "address"
        },
        {
          "internalType": "string",
          "name": "user_id",
          "type": "string"
        },
        {
          "internalType": "string",
          "name": "election_id",
          "type": "string"
        },
        {
          "internalType": "string",
          "name": "candidate_id",
          "type": "string"
        },
        {
          "internalType": "uint256",
          "name": "timestamp",
          "type": "uint256"
        }
      ],
      "stateMutability": "view",
      "type": "function",
      "constant": true
    },
    {
      "inputs": [
        {
          "internalType": "string",
          "name": "",
          "type": "string"
        },
        {
          "internalType": "string",
          "name": "",
          "type": "string"
        }
      ],
      "name": "userVotedInElection",
      "outputs": [
        {
          "internalType": "bool",
          "name": "",
          "type": "bool"
        }
      ],
      "stateMutability": "view",
      "type": "function",
      "constant": true
    },
    {
      "inputs": [
        {
          "internalType": "address",
          "name": "",
          "type": "address"
        }
      ],
      "name": "voted",
      "outputs": [
        {
          "internalType": "bool",
          "name": "",
          "type": "bool"
        }
      ],
      "stateMutability": "view",
      "type": "function",
      "constant": true
    },
    {
      "inputs": [
        {
          "internalType": "address payable",
          "name": "receiver",
          "type": "address"
        },
        {
          "internalType": "string",
          "name": "user_id",
          "type": "string"
        },
        {
          "internalType": "string",
          "name": "election_id",
          "type": "string"
        },
        {
          "internalType": "string",
          "name": "candidate_id",
          "type": "string"
        }
      ],
      "name": "addToBlockchain",
      "outputs": [],
      "stateMutability": "nonpayable",
      "type": "function"
    },
    {
      "inputs": [
        {
          "internalType": "string",
          "name": "election_id",
          "type": "string"
        },
        {
          "internalType": "string",
          "name": "user_id",
          "type": "string"
        }
      ],
      "name": "hasUserVoted",
      "outputs": [
        {
          "internalType": "bool",
          "name": "",
          "type": "bool"
        }
      ],
      "stateMutability": "view",
      "type": "function",
      "constant": true
    },
    {
      "inputs": [],
      "name": "getAllTransaction",
      "outputs": [
        {
          "components": [
            {
              "internalType": "address",
              "name": "from",
              "type": "address"
            },
            {
              "internalType": "address",
              "name": "receiver",
              "type": "address"
            },
            {
              "internalType": "string",
              "name": "user_id",
              "type": "string"
            },
            {
              "internalType": "string",
              "name": "election_id",
              "type": "string"
            },
            {
              "internalType": "string",
              "name": "candidate_id",
              "type": "string"
            },
            {
              "internalType": "uint256",
              "name": "timestamp",
              "type": "uint256"
            }
          ],
          "internalType": "struct Transaction.TransactionStruct[]",
          "name": "",
          "type": "tuple[]"
        }
      ],
      "stateMutability": "view",
      "type": "function",
      "constant": true
    },
    {
      "inputs": [],
      "name": "getTransactionCount",
      "outputs": [
        {
          "internalType": "uint256",
          "name": "",
          "type": "uint256"
        }
      ],
      "stateMutability": "view",
      "type": "function",
      "constant": true
    }
  ],
  "bytecode": "0x608060405234801561001057600080fd5b50611490806100206000396000f3fe608060405234801561001057600080fd5b50600436106100885760003560e01c80639ace38c21161005b5780639ace38c214610115578063add6415d1461014a578063aec2ccae14610168578063d6b440231461019857610088565b806314e887e81461008d57806325ecc6e0146100ab5780632e7700f0146100c7578063735f670d146100e5575b600080fd5b6100956101c8565b6040516100a29190611130565b60405180910390f35b6100c560048036038101906100c09190610c0d565b6101ce565b005b6100cf6104d5565b6040516100dc9190611130565b60405180910390f35b6100ff60048036038101906100fa9190610cb8565b6104de565b60405161010c91906110f5565b60405180910390f35b61012f600480360381019061012a9190610d24565b610530565b6040516101419695949392919061105d565b60405180910390f35b610152610754565b60405161015f91906110d3565b60405180910390f35b610182600480360381019061017d9190610be4565b610a1f565b60405161018f91906110f5565b60405180910390f35b6101b260048036038101906101ad9190610cb8565b610a3f565b6040516101bf91906110f5565b60405180910390f35b60005481565b6002826040516101de9190610fd0565b9081526020016040518091039020836040516101fa9190610fd0565b908152602001604051809103902060009054906101000a900460ff1615610256576040517f08c379a000000000000000000000000000000000000000000000000000000000815260040161024d90611110565b60405180910390fd5b6001600080828254610268919061121d565b9250508190555060036040518060c001604052803373ffffffffffffffffffffffffffffffffffffffff1681526020018673ffffffffffffffffffffffffffffffffffffffff16815260200185815260200184815260200183815260200142815250908060018154018082558091505060019003906000526020600020906006020160009091909190915060008201518160000160006101000a81548173ffffffffffffffffffffffffffffffffffffffff021916908373ffffffffffffffffffffffffffffffffffffffff16021790555060208201518160010160006101000a81548173ffffffffffffffffffffffffffffffffffffffff021916908373ffffffffffffffffffffffffffffffffffffffff160217905550604082015181600201908051906020019061039d929190610a9a565b5060608201518160030190805190602001906103ba929190610a9a565b5060808201518160040190805190602001906103d7929190610a9a565b5060a08201518160050155505060016002836040516103f69190610fd0565b9081526020016040518091039020846040516104129190610fd0565b908152602001604051809103902060006101000a81548160ff02191690831515021790555060018060003373ffffffffffffffffffffffffffffffffffffffff1673ffffffffffffffffffffffffffffffffffffffff16815260200190815260200160002060006101000a81548160ff0219169083151502179055507fc2a008061ffd24e1e90903faea6d67542ba54406f86b22a777a70e56274139073385858585426040516104c796959493929190610fe7565b60405180910390a150505050565b60008054905090565b60006002836040516104f09190610fd0565b90815260200160405180910390208260405161050c9190610fd0565b908152602001604051809103902060009054906101000a900460ff16905092915050565b6003818154811061054057600080fd5b90600052602060002090600602016000915090508060000160009054906101000a900473ffffffffffffffffffffffffffffffffffffffff16908060010160009054906101000a900473ffffffffffffffffffffffffffffffffffffffff16908060020180546105af90611345565b80601f01602080910402602001604051908101604052809291908181526020018280546105db90611345565b80156106285780601f106105fd57610100808354040283529160200191610628565b820191906000526020600020905b81548152906001019060200180831161060b57829003601f168201915b50505050509080600301805461063d90611345565b80601f016020809104026020016040519081016040528092919081815260200182805461066990611345565b80156106b65780601f1061068b576101008083540402835291602001916106b6565b820191906000526020600020905b81548152906001019060200180831161069957829003601f168201915b5050505050908060040180546106cb90611345565b80601f01602080910402602001604051908101604052809291908181526020018280546106f790611345565b80156107445780601f1061071957610100808354040283529160200191610744565b820191906000526020600020905b81548152906001019060200180831161072757829003601f168201915b5050505050908060050154905086565b60606003805480602002602001604051908101604052809291908181526020016000905b82821015610a1657838290600052602060002090600602016040518060c00160405290816000820160009054906101000a900473ffffffffffffffffffffffffffffffffffffffff1673ffffffffffffffffffffffffffffffffffffffff1673ffffffffffffffffffffffffffffffffffffffff1681526020016001820160009054906101000a900473ffffffffffffffffffffffffffffffffffffffff1673ffffffffffffffffffffffffffffffffffffffff1673ffffffffffffffffffffffffffffffffffffffff16815260200160028201805461085790611345565b80601f016020809104026020016040519081016040528092919081815260200182805461088390611345565b80156108d05780601f106108a5576101008083540402835291602001916108d0565b820191906000526020600020905b8154815290600101906020018083116108b357829003601f168201915b505050505081526020016003820180546108e990611345565b80601f016020809104026020016040519081016040528092919081815260200182805461091590611345565b80156109625780601f1061093757610100808354040283529160200191610962565b820191906000526020600020905b81548152906001019060200180831161094557829003601f168201915b5050505050815260200160048201805461097b90611345565b80601f01602080910402602001604051908101604052809291908181526020018280546109a790611345565b80156109f45780601f106109c9576101008083540402835291602001916109f4565b820191906000526020600020905b8154815290600101906020018083116109d757829003601f168201915b5050505050815260200160058201548152505081526020019060010190610778565b50505050905090565b60016020528060005260406000206000915054906101000a900460ff1681565b600282805160208101820180518482526020830160208501208183528095505050505050818051602081018201805184825260208301602085012081835280955050505050506000915091509054906101000a900460ff1681565b828054610aa690611345565b90600052602060002090601f016020900481019282610ac85760008555610b0f565b82601f10610ae157805160ff1916838001178555610b0f565b82800160010185558215610b0f579182015b82811115610b0e578251825591602001919060010190610af3565b5b509050610b1c9190610b20565b5090565b5b80821115610b39576000816000905550600101610b21565b5090565b6000610b50610b4b8461117c565b61114b565b905082815260208101848484011115610b6857600080fd5b610b73848285611303565b509392505050565b600081359050610b8a81611415565b92915050565b600081359050610b9f8161142c565b92915050565b600082601f830112610bb657600080fd5b8135610bc6848260208601610b3d565b91505092915050565b600081359050610bde81611443565b92915050565b600060208284031215610bf657600080fd5b6000610c0484828501610b7b565b91505092915050565b60008060008060808587031215610c2357600080fd5b6000610c3187828801610b90565b945050602085013567ffffffffffffffff811115610c4e57600080fd5b610c5a87828801610ba5565b935050604085013567ffffffffffffffff811115610c7757600080fd5b610c8387828801610ba5565b925050606085013567ffffffffffffffff811115610ca057600080fd5b610cac87828801610ba5565b91505092959194509250565b60008060408385031215610ccb57600080fd5b600083013567ffffffffffffffff811115610ce557600080fd5b610cf185828601610ba5565b925050602083013567ffffffffffffffff811115610d0e57600080fd5b610d1a85828601610ba5565b9150509250929050565b600060208284031215610d3657600080fd5b6000610d4484828501610bcf565b91505092915050565b6000610d598383610f1b565b905092915050565b610d6a816112cd565b82525050565b610d7981611273565b82525050565b610d8881611273565b82525050565b6000610d99826111bc565b610da381856111df565b935083602082028501610db5856111ac565b8060005b85811015610df15784840389528151610dd28582610d4d565b9450610ddd836111d2565b925060208a01995050600181019050610db9565b50829750879550505050505092915050565b610e0c81611297565b82525050565b6000610e1d826111c7565b610e2781856111f0565b9350610e37818560208601611312565b610e4081611404565b840191505092915050565b6000610e56826111c7565b610e608185611201565b9350610e70818560208601611312565b610e7981611404565b840191505092915050565b6000610e8f826111c7565b610e998185611212565b9350610ea9818560208601611312565b80840191505092915050565b6000610ec2602783611201565b91507f596f75206861766520616c726561647920766f74656420696e2074686973206560008301527f6c656374696f6e000000000000000000000000000000000000000000000000006020830152604082019050919050565b600060c083016000830151610f336000860182610d70565b506020830151610f466020860182610d70565b5060408301518482036040860152610f5e8282610e12565b91505060608301518482036060860152610f788282610e12565b91505060808301518482036080860152610f928282610e12565b91505060a0830151610fa760a0860182610fb2565b508091505092915050565b610fbb816112c3565b82525050565b610fca816112c3565b82525050565b6000610fdc8284610e84565b915081905092915050565b600060c082019050610ffc6000830189610d7f565b6110096020830188610d61565b818103604083015261101b8187610e4b565b9050818103606083015261102f8186610e4b565b905081810360808301526110438185610e4b565b905061105260a0830184610fc1565b979650505050505050565b600060c0820190506110726000830189610d7f565b61107f6020830188610d7f565b81810360408301526110918187610e4b565b905081810360608301526110a58186610e4b565b905081810360808301526110b98185610e4b565b90506110c860a0830184610fc1565b979650505050505050565b600060208201905081810360008301526110ed8184610d8e565b905092915050565b600060208201905061110a6000830184610e03565b92915050565b6000602082019050818103600083015261112981610eb5565b9050919050565b60006020820190506111456000830184610fc1565b92915050565b6000604051905081810181811067ffffffffffffffff82111715611172576111716113d5565b5b8060405250919050565b600067ffffffffffffffff821115611197576111966113d5565b5b601f19601f8301169050602081019050919050565b6000819050602082019050919050565b600081519050919050565b600081519050919050565b6000602082019050919050565b600082825260208201905092915050565b600082825260208201905092915050565b600082825260208201905092915050565b600081905092915050565b6000611228826112c3565b9150611233836112c3565b9250827fffffffffffffffffffffffffffffffffffffffffffffffffffffffffffffffff0382111561126857611267611377565b5b828201905092915050565b600061127e826112a3565b9050919050565b6000611290826112a3565b9050919050565b60008115159050919050565b600073ffffffffffffffffffffffffffffffffffffffff82169050919050565b6000819050919050565b60006112d8826112df565b9050919050565b60006112ea826112f1565b9050919050565b60006112fc826112a3565b9050919050565b82818337600083830152505050565b60005b83811015611330578082015181840152602081019050611315565b8381111561133f576000848401525b50505050565b6000600282049050600182168061135d57607f821691505b60208210811415611371576113706113a6565b5b50919050565b7f4e487b7100000000000000000000000000000000000000000000000000000000600052601160045260246000fd5b7f4e487b7100000000000000000000000000000000000000000000000000000000600052602260045260246000fd5b7f4e487b7100000000000000000000000000000000000000000000000000000000600052604160045260246000fd5b6000601f19601f8301169050919050565b61141e81611273565b811461142957600080fd5b50565b61143581611285565b811461144057600080fd5b50565b61144c816112c3565b811461145757600080fd5b5056fea2646970667358221220e9223ee0e1a09ae8e50f5cebab0a67c552c9e62c668da3f469f0bfab58580f5964736f6c63430008000033",
  "immutableReferences": {},
  "source": "// SPDX-License-Identifier: UNLICENSED\npragma solidity ^0.8.0;\n\ncontract Transaction {\n    uint256 public transactionCounter;\n\n    event Transfer(address from, address receiver, string user_id, string election_id, string candidate_id, uint timestamp);\n\n    struct TransactionStruct {\n        address from;\n        address receiver;\n        string user_id;\n        string election_id;\n        string candidate_id;\n        uint timestamp;\n    }\n\n    mapping(address => bool) public voted; // Tracks if an address has voted\n    mapping(string => mapping(string => bool)) public userVotedInElection; // Tracks if a user has voted in a specific election\n\n    TransactionStruct[] public transactions;\n\n    function addToBlockchain(address payable receiver, string memory user_id, string memory election_id, string memory candidate_id) public {\n        require(!userVotedInElection[election_id][user_id], \"You have already voted in this election\");\n        transactionCounter += 1;\n        transactions.push(TransactionStruct(msg.sender, receiver, user_id, election_id, candidate_id, block.timestamp));\n        userVotedInElection[election_id][user_id] = true; // Mark user as voted in this election\n        voted[msg.sender] = true;\n\n        emit Transfer(msg.sender, receiver, user_id, election_id, candidate_id, block.timestamp);\n    }\n\n    function hasUserVoted(string memory election_id, string memory user_id) public view returns (bool) {\n        return userVotedInElection[election_id][user_id];\n    }\n\n    function getAllTransaction() public view returns (TransactionStruct[] memory) {\n        return transactions;\n    }\n\n    function getTransactionCount() public view returns (uint256) {\n        return transactionCounter;\n    }\n}\n\n\n",
  "sourcePath": "C:\\Users\\SAURABH KRISHNA\\Downloads\\E-Voting-System\\E-Voting-System\\smart_contract\\contracts\\Transaction.sol",
  "compiler": {
    "name": "solc",
    "version": "0.8.0+commit.c7dfd78e.Emscripten.clang"
  },
  "schemaVersion": "3.4.16",
  "updatedAt": "2025-02-28T17:38:32.756Z",
  "networkType": "ethereum",
  "devdoc": {
    "kind": "dev",
    "methods": {},
    "version": 1
  },
  "userdoc": {
    "kind": "user",
    "methods": {},
    "version": 1
  }
}